{
  "address": "0x2De362daf5bBCeca8CBaae614f48db67FE2e2317",
  "abi": [
    {
      "inputs": [],
      "name": "FailedVerifyTx",
      "type": "error"
    },
    {
      "inputs": [],
      "name": "ItemLenError",
      "type": "error"
    },
    {
      "inputs": [],
      "name": "ItemNotList",
      "type": "error"
    },
    {
      "inputs": [],
      "name": "NoPermission",
      "type": "error"
    },
    {
      "inputs": [],
      "name": "SidechainIdNotMatch",
      "type": "error"
    },
    {
      "inputs": [
        {
          "internalType": "bytes32",
          "name": "hash",
          "type": "bytes32"
        },
        {
          "internalType": "address",
          "name": "singer",
          "type": "address"
        }
      ],
      "name": "TxAleadyExists",
      "type": "error"
    },
    {
      "inputs": [],
      "name": "ZeroAddressSet",
      "type": "error"
    },
    {
      "anonymous": false,
      "inputs": [
        {
          "indexed": false,
          "internalType": "address",
          "name": "previousAdmin",
          "type": "address"
        },
        {
          "indexed": false,
          "internalType": "address",
          "name": "newAdmin",
          "type": "address"
        }
      ],
      "name": "AdminChanged",
      "type": "event"
    },
    {
      "anonymous": false,
      "inputs": [
        {
          "indexed": true,
          "internalType": "address",
          "name": "beacon",
          "type": "address"
        }
      ],
      "name": "BeaconUpgraded",
      "type": "event"
    },
    {
      "anonymous": false,
      "inputs": [
        {
          "indexed": false,
          "internalType": "uint8",
          "name": "version",
          "type": "uint8"
        }
      ],
      "name": "Initialized",
      "type": "event"
    },
    {
      "anonymous": false,
      "inputs": [
        {
          "indexed": true,
          "internalType": "address",
          "name": "previousOwner",
          "type": "address"
        },
        {
          "indexed": true,
          "internalType": "address",
          "name": "newOwner",
          "type": "address"
        }
      ],
      "name": "OwnershipTransferred",
      "type": "event"
    },
    {
      "anonymous": false,
      "inputs": [
        {
          "indexed": false,
          "internalType": "bytes32",
          "name": "txHash",
          "type": "bytes32"
        }
      ],
      "name": "SyncTx",
      "type": "event"
    },
    {
      "anonymous": false,
      "inputs": [
        {
          "indexed": true,
          "internalType": "address",
          "name": "implementation",
          "type": "address"
        }
      ],
      "name": "Upgraded",
      "type": "event"
    },
    {
      "inputs": [],
      "name": "claimOwnership",
      "outputs": [],
      "stateMutability": "nonpayable",
      "type": "function"
    },
    {
      "inputs": [],
      "name": "getChainId",
      "outputs": [
        {
          "internalType": "uint256",
          "name": "",
          "type": "uint256"
        }
      ],
      "stateMutability": "view",
      "type": "function"
    },
    {
      "inputs": [
        {
          "internalType": "address",
          "name": "owner_",
          "type": "address"
        },
        {
          "internalType": "uint256",
          "name": "chainId_",
          "type": "uint256"
        }
      ],
      "name": "initialize",
      "outputs": [],
      "stateMutability": "nonpayable",
      "type": "function"
    },
    {
      "inputs": [
        {
          "internalType": "bytes32",
          "name": "hash",
          "type": "bytes32"
        }
      ],
      "name": "isVerified",
      "outputs": [
        {
          "internalType": "bool",
          "name": "",
          "type": "bool"
        },
        {
          "internalType": "address",
          "name": "",
          "type": "address"
        }
      ],
      "stateMutability": "view",
      "type": "function"
    },
    {
      "inputs": [],
      "name": "owner",
      "outputs": [
        {
          "internalType": "address",
          "name": "",
          "type": "address"
        }
      ],
      "stateMutability": "view",
      "type": "function"
    },
    {
      "inputs": [],
      "name": "pendingOwner",
      "outputs": [
        {
          "internalType": "address",
          "name": "",
          "type": "address"
        }
      ],
      "stateMutability": "view",
      "type": "function"
    },
    {
      "inputs": [],
      "name": "proxiableUUID",
      "outputs": [
        {
          "internalType": "bytes32",
          "name": "",
          "type": "bytes32"
        }
      ],
      "stateMutability": "view",
      "type": "function"
    },
    {
      "inputs": [],
      "name": "renounceOwnership",
      "outputs": [],
      "stateMutability": "nonpayable",
      "type": "function"
    },
    {
      "inputs": [
        {
          "internalType": "address",
          "name": "newOwner",
          "type": "address"
        },
        {
          "internalType": "bool",
          "name": "direct",
          "type": "bool"
        }
      ],
      "name": "transferOwnership",
      "outputs": [],
      "stateMutability": "nonpayable",
      "type": "function"
    },
    {
      "inputs": [
        {
          "internalType": "address",
          "name": "newImplementation",
          "type": "address"
        }
      ],
      "name": "upgradeTo",
      "outputs": [],
      "stateMutability": "nonpayable",
      "type": "function"
    },
    {
      "inputs": [
        {
          "internalType": "address",
          "name": "newImplementation",
          "type": "address"
        },
        {
          "internalType": "bytes",
          "name": "data",
          "type": "bytes"
        }
      ],
      "name": "upgradeToAndCall",
      "outputs": [],
      "stateMutability": "payable",
      "type": "function"
    },
    {
      "inputs": [
        {
          "components": [
            {
              "internalType": "bytes",
              "name": "rlpTx",
              "type": "bytes"
            },
            {
              "internalType": "uint8",
              "name": "v",
              "type": "uint8"
            },
            {
              "internalType": "bytes32",
              "name": "r",
              "type": "bytes32"
            },
            {
              "internalType": "bytes32",
              "name": "s",
              "type": "bytes32"
            },
            {
              "internalType": "address",
              "name": "singer",
              "type": "address"
            }
          ],
          "internalType": "struct RollUpStorage.Tx[]",
          "name": "txs",
          "type": "tuple[]"
        }
      ],
      "name": "verifyTxSet",
      "outputs": [
        {
          "internalType": "bool",
          "name": "",
          "type": "bool"
        }
      ],
      "stateMutability": "nonpayable",
      "type": "function"
    }
  ],
  "transactionHash": "0xb26976caa093d2e5f0756acf539ed21d0fbf6b1791235863518f17168b342ee1",
  "args": [],
  "numDeployments": 4,
  "solcInputHash": "832d46007ce5bef346f21d0f25d44b37",
  "bytecode": "0x60a06040523060805234801561001457600080fd5b50608051611b2861004c60003960008181610266015281816102af01528181610473015281816104b301526105460152611b286000f3fe6080604052600436106100a75760003560e01c8063715018a611610064578063715018a61461015f5780638da5cb5b14610174578063b242e534146101a6578063c181b273146101c6578063cd6dc6871461021e578063e30c39781461023e57600080fd5b80633408e470146100ac5780633659cfe6146100d05780633e43fd1e146100f25780634e71e0c8146101225780634f1ef2861461013757806352d1902d1461014a575b600080fd5b3480156100b857600080fd5b506000545b6040519081526020015b60405180910390f35b3480156100dc57600080fd5b506100f06100eb36600461162c565b61025c565b005b3480156100fe57600080fd5b5061011261010d366004611647565b610344565b60405190151581526020016100c7565b34801561012e57600080fd5b506100f0610434565b6100f06101453660046116d2565b610469565b34801561015657600080fd5b506100bd610539565b34801561016b57600080fd5b506100f06105ec565b34801561018057600080fd5b506098546001600160a01b03165b6040516001600160a01b0390911681526020016100c7565b3480156101b257600080fd5b506100f06101c1366004611794565b6105fe565b3480156101d257600080fd5b506101ff6101e13660046117d0565b6000908152600160205260409020546001600160a01b031680151591565b6040805192151583526001600160a01b039091166020830152016100c7565b34801561022a57600080fd5b506100f06102393660046117e9565b61065b565b34801561024a57600080fd5b506099546001600160a01b031661018e565b6001600160a01b037f00000000000000000000000000000000000000000000000000000000000000001630036102ad5760405162461bcd60e51b81526004016102a490611813565b60405180910390fd5b7f00000000000000000000000000000000000000000000000000000000000000006001600160a01b03166102f6600080516020611aac833981519152546001600160a01b031690565b6001600160a01b03161461031c5760405162461bcd60e51b81526004016102a49061185f565b61032581610774565b604080516000808252602082019092526103419183919061077c565b50565b600080808080808681805b8281101561042157368b8b8381811061036a5761036a6118ab565b905060200281019061037c91906118c1565b9050610387816108e7565b600086815260016020526040902054949e50929c50909a5098509196509093506001600160a01b0316156103f15760008581526001602052604090819020549051631563f2ad60e21b8152600481018790526001600160a01b0390911660248201526044016102a4565b6103ff858a8a8a8a88610a97565b1561040e5761040e8386610b31565b5080610419816118f7565b91505061034f565b5060019750505050505050505b92915050565b6099546001600160a01b0316331461045f57604051639d7b369d60e01b815260040160405180910390fd5b610467610b90565b565b6001600160a01b037f00000000000000000000000000000000000000000000000000000000000000001630036104b15760405162461bcd60e51b81526004016102a490611813565b7f00000000000000000000000000000000000000000000000000000000000000006001600160a01b03166104fa600080516020611aac833981519152546001600160a01b031690565b6001600160a01b0316146105205760405162461bcd60e51b81526004016102a49061185f565b61052982610774565b6105358282600161077c565b5050565b6000306001600160a01b037f000000000000000000000000000000000000000000000000000000000000000016146105d95760405162461bcd60e51b815260206004820152603860248201527f555550535570677261646561626c653a206d757374206e6f742062652063616c60448201527f6c6564207468726f7567682064656c656761746563616c6c000000000000000060648201526084016102a4565b50600080516020611aac83398151915290565b6105f4610bf9565b6104676000610c24565b610606610bf9565b6001600160a01b03821661062d57604051630ae8f22360e21b815260040160405180910390fd5b801561063c5761053582610c24565b609980546001600160a01b0319166001600160a01b0384161790555050565b603354610100900460ff161580801561067b5750603354600160ff909116105b806106955750303b158015610695575060335460ff166001145b6106f85760405162461bcd60e51b815260206004820152602e60248201527f496e697469616c697a61626c653a20636f6e747261637420697320616c72656160448201526d191e481a5b9a5d1a585b1a5e995960921b60648201526084016102a4565b6033805460ff19166001179055801561071b576033805461ff0019166101001790555b600082905561072983610c9a565b801561076f576033805461ff0019169055604051600181527f7f26b83ff96e1f2b6a682f133852f6798a09c465da95921460cefb38474024989060200160405180910390a15b505050565b610341610bf9565b7f4910fdfa16fed3260ed0e7147f7cc6da11a60208b5b9406d12a635614ffd91435460ff16156107af5761076f83610d0e565b826001600160a01b03166352d1902d6040518163ffffffff1660e01b8152600401602060405180830381865afa925050508015610809575060408051601f3d908101601f1916820190925261080691810190611910565b60015b61086c5760405162461bcd60e51b815260206004820152602e60248201527f45524331393637557067726164653a206e657720696d706c656d656e7461746960448201526d6f6e206973206e6f74205555505360901b60648201526084016102a4565b600080516020611aac83398151915281146108db5760405162461bcd60e51b815260206004820152602960248201527f45524331393637557067726164653a20756e737570706f727465642070726f786044820152681a58589b195555525160ba1b60648201526084016102a4565b5061076f838383610daa565b60008080808080806108f98880611929565b8080601f016020809104026020016040519081016040528093929190818152602001838380828437600092018290525093945061093b9250849150610dd59050565b905061094681610e02565b156109dc57600061095682610e3d565b90506109628a80611929565b604051610970929190611977565b604051809103902061099b8260068151811061098e5761098e6118ab565b6020026020010151610f67565b6109ab60408d0160208e01611987565b8c604001358d606001358e60800160208101906109c8919061162c565b985098509850985098509850505050610a8e565b6109e68980611929565b6040516109f4929190611977565b604051908190039020610a52610a0a8b80611929565b610a189160019082906119aa565b8080601f016020809104026020016040519081016040528093929190818152602001838380828437600092019190915250610fc792505050565b610a6260408c0160208d01611987565b8b604001358c606001358d6080016020810190610a7f919061162c565b97509750975097509750975050505b91939550919395565b600080548614610aba57604051635dc33b0f60e01b815260040160405180910390fd5b60008560ff1660011480610acf575060ff8616155b610ad95785610ae4565b610ae486601b6119d4565b9050610af288828787611071565b6001600160a01b0316836001600160a01b031614610b235760405163ad1aa96960e01b815260040160405180910390fd5b506001979650505050505050565b60008181526001602090815260409182902080546001600160a01b0319166001600160a01b03861617905590518281527fe41be7b441e1d9dd898bd76371e4fcda57a8145bb6aba331f9a8bf033a23caa1910160405180910390a15050565b6098546099546040516001600160a01b03928316929091169082907f8be0079c531659141344cd1fd0a4f28419497f9722a3daafe3b4186f6b6457e090600090a35060998054609880546001600160a01b03199081166001600160a01b03841617909155169055565b6098546001600160a01b0316331461046757604051639d7b369d60e01b815260040160405180910390fd5b7fb53127684a568b3173ae13b9f8a6016e243e63b6e8ee1178d6a717850b5d6103819055609880546001600160a01b038084166001600160a01b0319831681179093556040519116919082907f8be0079c531659141344cd1fd0a4f28419497f9722a3daafe3b4186f6b6457e090600090a35050565b603354610100900460ff16610d055760405162461bcd60e51b815260206004820152602b60248201527f496e697469616c697a61626c653a20636f6e7472616374206973206e6f74206960448201526a6e697469616c697a696e6760a81b60648201526084016102a4565b61034181610c24565b6001600160a01b0381163b610d7b5760405162461bcd60e51b815260206004820152602d60248201527f455243313936373a206e657720696d706c656d656e746174696f6e206973206e60448201526c1bdd08184818dbdb9d1c9858dd609a1b60648201526084016102a4565b600080516020611aac83398151915280546001600160a01b0319166001600160a01b0392909216919091179055565b610db383611099565b600082511180610dc05750805b1561076f57610dcf83836110d9565b50505050565b60408051808201825260008082526020918201528151808301909252825182529182019181019190915290565b80516000908103610e1557506000919050565b6020820151805160001a9060c0821015610e33575060009392505050565b5060019392505050565b6060610e4882610e02565b610e6557604051637f20d60b60e01b815260040160405180910390fd5b6000610e70836111cd565b905060008167ffffffffffffffff811115610e8d57610e8d6116bc565b604051908082528060200260200182016040528015610ed257816020015b6040805180820190915260008082526020820152815260200190600190039081610eab5790505b5090506000610ee48560200151611252565b8560200151610ef391906119ed565b90506000805b84811015610f5c57610f0a836112d4565b9150604051806040016040528083815260200184815250848281518110610f3357610f336118ab565b6020908102919091010152610f4882846119ed565b925080610f54816118f7565b915050610ef9565b509195945050505050565b80516000901580610f79575081516021105b15610f9757604051632e161abb60e01b815260040160405180910390fd5b600080610fa38461137d565b815191935091506020821015610fbf5760208290036101000a90045b949350505050565b600080610ffb8360408051808201825260008082526020918201528151808301909252825182529182019181019190915290565b9050600061100c8260200151611252565b826020015161101b91906119ed565b9050600061103c604051806040016040528060008152602001600081525090565b611045836112d4565b9150604051806040016040528083815260200184815250905061106781610f67565b9695505050505050565b6000806000611082878787876113c4565b9150915061108f81611488565b5095945050505050565b6110a281610d0e565b6040516001600160a01b038216907fbc7cd75a20ee27fd9adebab32041f755214dbc6bffa90cc0225b39da2e5c2d3b90600090a250565b60606001600160a01b0383163b6111415760405162461bcd60e51b815260206004820152602660248201527f416464726573733a2064656c65676174652063616c6c20746f206e6f6e2d636f6044820152651b9d1c9858dd60d21b60648201526084016102a4565b600080846001600160a01b03168460405161115c9190611a24565b600060405180830381855af49150503d8060008114611197576040519150601f19603f3d011682016040523d82523d6000602084013e61119c565b606091505b50915091506111c48282604051806060016040528060278152602001611acc602791396115d2565b95945050505050565b805160009081036111e057506000919050565b6000806111f08460200151611252565b84602001516111ff91906119ed565b905060008460000151856020015161121791906119ed565b90505b808210156112495761122b826112d4565b61123590836119ed565b915082611241816118f7565b93505061121a565b50909392505050565b8051600090811a608081101561126b5750600092915050565b60b8811080611286575060c08110801590611286575060f881105b156112945750600192915050565b60c08110156112c8576112a9600160b8611a36565b6112b69060ff1682611a4f565b6112c19060016119ed565b9392505050565b6112a9600160f8611a36565b80516000908190811a60808110156112ef5760019150611376565b60b881101561131557611303608082611a4f565b61130e9060016119ed565b9150611376565b60c08110156113425760b78103600185019450806020036101000a85510460018201810193505050611376565b60f88110156113565761130360c082611a4f565b60f78103600185019450806020036101000a855104600182018101935050505b5092915050565b600080600061138f8460200151611252565b905060008185602001516113a391906119ed565b905060008286600001516113b79190611a4f565b9196919550909350505050565b6000807f7fffffffffffffffffffffffffffffff5d576e7357a4501ddfe92f46681b20a08311156113fb575060009050600361147f565b6040805160008082526020820180845289905260ff881692820192909252606081018690526080810185905260019060a0016020604051602081039080840390855afa15801561144f573d6000803e3d6000fd5b5050604051601f1901519150506001600160a01b0381166114785760006001925092505061147f565b9150600090505b94509492505050565b600081600481111561149c5761149c611a62565b036114a45750565b60018160048111156114b8576114b8611a62565b036115055760405162461bcd60e51b815260206004820152601860248201527f45434453413a20696e76616c6964207369676e6174757265000000000000000060448201526064016102a4565b600281600481111561151957611519611a62565b036115665760405162461bcd60e51b815260206004820152601f60248201527f45434453413a20696e76616c6964207369676e6174757265206c656e6774680060448201526064016102a4565b600381600481111561157a5761157a611a62565b036103415760405162461bcd60e51b815260206004820152602260248201527f45434453413a20696e76616c6964207369676e6174757265202773272076616c604482015261756560f01b60648201526084016102a4565b606083156115e15750816112c1565b6112c183838151156115f65781518083602001fd5b8060405162461bcd60e51b81526004016102a49190611a78565b80356001600160a01b038116811461162757600080fd5b919050565b60006020828403121561163e57600080fd5b6112c182611610565b6000806020838503121561165a57600080fd5b823567ffffffffffffffff8082111561167257600080fd5b818501915085601f83011261168657600080fd5b81358181111561169557600080fd5b8660208260051b85010111156116aa57600080fd5b60209290920196919550909350505050565b634e487b7160e01b600052604160045260246000fd5b600080604083850312156116e557600080fd5b6116ee83611610565b9150602083013567ffffffffffffffff8082111561170b57600080fd5b818501915085601f83011261171f57600080fd5b813581811115611731576117316116bc565b604051601f8201601f19908116603f01168101908382118183101715611759576117596116bc565b8160405282815288602084870101111561177257600080fd5b8260208601602083013760006020848301015280955050505050509250929050565b600080604083850312156117a757600080fd5b6117b083611610565b9150602083013580151581146117c557600080fd5b809150509250929050565b6000602082840312156117e257600080fd5b5035919050565b600080604083850312156117fc57600080fd5b61180583611610565b946020939093013593505050565b6020808252602c908201527f46756e6374696f6e206d7573742062652063616c6c6564207468726f7567682060408201526b19195b1959d85d1958d85b1b60a21b606082015260800190565b6020808252602c908201527f46756e6374696f6e206d7573742062652063616c6c6564207468726f7567682060408201526b6163746976652070726f787960a01b606082015260800190565b634e487b7160e01b600052603260045260246000fd5b60008235609e198336030181126118d757600080fd5b9190910192915050565b634e487b7160e01b600052601160045260246000fd5b600060018201611909576119096118e1565b5060010190565b60006020828403121561192257600080fd5b5051919050565b6000808335601e1984360301811261194057600080fd5b83018035915067ffffffffffffffff82111561195b57600080fd5b60200191503681900382131561197057600080fd5b9250929050565b8183823760009101908152919050565b60006020828403121561199957600080fd5b813560ff811681146112c157600080fd5b600080858511156119ba57600080fd5b838611156119c757600080fd5b5050820193919092039150565b60ff818116838216019081111561042e5761042e6118e1565b8082018082111561042e5761042e6118e1565b60005b83811015611a1b578181015183820152602001611a03565b50506000910152565b600082516118d7818460208701611a00565b60ff828116828216039081111561042e5761042e6118e1565b8181038181111561042e5761042e6118e1565b634e487b7160e01b600052602160045260246000fd5b6020815260008251806020840152611a97816040850160208701611a00565b601f01601f1916919091016040019291505056fe360894a13ba1a3210667c828492db98dca3e2076cc3735a920a3ca505d382bbc416464726573733a206c6f772d6c6576656c2064656c65676174652063616c6c206661696c6564a26469706673582212205043edf0b5fd83cfa8d39155f84fb99b7e1394b344b3aa1ba695de25ef1b1b5564736f6c63430008110033",
  "devdoc": {
    "kind": "dev",
    "methods": {
      "claimOwnership()": {
        "details": "pending owner call this function to claim ownership"
      },
      "getChainId()": {
        "details": "get side chain id"
      },
      "initialize(address,uint256)": {
        "details": "initialize contract"
      },
      "isVerified(bytes32)": {
        "details": "check if the transaction has been verified,is so return (true,singer) otherwise return (false,0x00)"
      },
      "owner()": {
        "details": "Returns the address of the current owner."
      },
      "pendingOwner()": {
        "details": "Return the address of the pending owner"
      },
      "proxiableUUID()": {
        "details": "Implementation of the ERC1822 {proxiableUUID} function. This returns the storage slot used by the implementation. It is used to validate the implementation's compatibility when performing an upgrade. IMPORTANT: A proxy pointing at a proxiable contract should not be considered proxiable itself, because this risks bricking a proxy that upgrades to it, by delegating to itself until out of gas. Thus it is critical that this function revert if invoked through a proxy. This is guaranteed by the `notDelegated` modifier."
      },
      "renounceOwnership()": {
        "details": "Leaves the contract without owner. It will not be possible to call `onlyOwner` functions anymore. Can only be called by the current owner. NOTE: Renouncing ownership will leave the contract without an owner, thereby removing any functionality that is only available to the owner."
      },
      "transferOwnership(address,bool)": {
        "details": "Transfers ownership of the contract to a new account (`newOwner`). Can only be called by the current owner. Note If direct is false, it will set an pending owner and the OwnerShipTransferring only happens when the pending owner claim the ownership"
      },
      "upgradeTo(address)": {
        "details": "Upgrade the implementation of the proxy to `newImplementation`. Calls {_authorizeUpgrade}. Emits an {Upgraded} event."
      },
      "upgradeToAndCall(address,bytes)": {
        "details": "Upgrade the implementation of the proxy to `newImplementation`, and subsequently execute the function call encoded in `data`. Calls {_authorizeUpgrade}. Emits an {Upgraded} event."
      },
      "verifyTxSet((bytes,uint8,bytes32,bytes32,address)[])": {
        "details": "verify tx set",
        "params": {
          "txs": "pending transaction"
        }
      }
    },
    "version": 1
  },
  "userdoc": {
    "kind": "user",
    "methods": {},
    "version": 1
  },
  "storageLayout": {
    "storage": [
      {
        "astId": 2484,
        "contract": "contracts/RollUpgradable.sol:RollUpgradable",
        "label": "_chainId",
        "offset": 0,
        "slot": "0",
        "type": "t_uint256"
      },
      {
        "astId": 2488,
        "contract": "contracts/RollUpgradable.sol:RollUpgradable",
        "label": "_verified",
        "offset": 0,
        "slot": "1",
        "type": "t_mapping(t_bytes32,t_address)"
      },
      {
        "astId": 2503,
        "contract": "contracts/RollUpgradable.sol:RollUpgradable",
        "label": "__gap",
        "offset": 0,
        "slot": "2",
        "type": "t_array(t_uint256)49_storage"
      },
      {
        "astId": 395,
        "contract": "contracts/RollUpgradable.sol:RollUpgradable",
        "label": "_initialized",
        "offset": 0,
        "slot": "51",
        "type": "t_uint8"
      },
      {
        "astId": 398,
        "contract": "contracts/RollUpgradable.sol:RollUpgradable",
        "label": "_initializing",
        "offset": 1,
        "slot": "51",
        "type": "t_bool"
      },
      {
        "astId": 1018,
        "contract": "contracts/RollUpgradable.sol:RollUpgradable",
        "label": "__gap",
        "offset": 0,
        "slot": "52",
        "type": "t_array(t_uint256)50_storage"
      },
      {
        "astId": 377,
        "contract": "contracts/RollUpgradable.sol:RollUpgradable",
        "label": "__gap",
        "offset": 0,
        "slot": "102",
        "type": "t_array(t_uint256)50_storage"
      },
      {
        "astId": 2877,
        "contract": "contracts/RollUpgradable.sol:RollUpgradable",
        "label": "_owner",
        "offset": 0,
        "slot": "152",
        "type": "t_address"
      },
      {
        "astId": 2879,
        "contract": "contracts/RollUpgradable.sol:RollUpgradable",
        "label": "_pendingOwner",
        "offset": 0,
        "slot": "153",
        "type": "t_address"
      },
      {
        "astId": 3081,
        "contract": "contracts/RollUpgradable.sol:RollUpgradable",
        "label": "__gap",
        "offset": 0,
        "slot": "154",
        "type": "t_array(t_uint256)48_storage"
      },
      {
        "astId": 692,
        "contract": "contracts/RollUpgradable.sol:RollUpgradable",
        "label": "__gap",
        "offset": 0,
        "slot": "202",
        "type": "t_array(t_uint256)50_storage"
      }
    ],
    "types": {
      "t_address": {
        "encoding": "inplace",
        "label": "address",
        "numberOfBytes": "20"
      },
      "t_array(t_uint256)48_storage": {
        "base": "t_uint256",
        "encoding": "inplace",
        "label": "uint256[48]",
        "numberOfBytes": "1536"
      },
      "t_array(t_uint256)49_storage": {
        "base": "t_uint256",
        "encoding": "inplace",
        "label": "uint256[49]",
        "numberOfBytes": "1568"
      },
      "t_array(t_uint256)50_storage": {
        "base": "t_uint256",
        "encoding": "inplace",
        "label": "uint256[50]",
        "numberOfBytes": "1600"
      },
      "t_bool": {
        "encoding": "inplace",
        "label": "bool",
        "numberOfBytes": "1"
      },
      "t_bytes32": {
        "encoding": "inplace",
        "label": "bytes32",
        "numberOfBytes": "32"
      },
      "t_mapping(t_bytes32,t_address)": {
        "encoding": "mapping",
        "key": "t_bytes32",
        "label": "mapping(bytes32 => address)",
        "numberOfBytes": "32",
        "value": "t_address"
      },
      "t_uint256": {
        "encoding": "inplace",
        "label": "uint256",
        "numberOfBytes": "32"
      },
      "t_uint8": {
        "encoding": "inplace",
        "label": "uint8",
        "numberOfBytes": "1"
      }
    }
  }
}